:10090B00090C736F756D656E6472610208000002ED
:03091B000A0000CF
:03000B0002088C5C
:10088C00C0E0C0D00509E50970020508C39410E565
:10089C0008940E5008758C00758A00800EB2B775DE
:1008AC008C00758A00750800750900D0D0D0E03234
:030023000208BC14
:1008BC00C0E0C0D075D000C000C299D3E50B94093C
:1008CC00E50A940040028010740C250BF8E6F599AB
:0F08DC00050BE50B7002050AD000D0D0D0E0323A
:1008EB00758920E4F58CF58A75985075A892758DED
:1008FB00FDD28CD28E759920E59065A0F58080F89D
:03000000020800F3
:0C080000787FE4F6D8FD758114020847EB
:10080C000208EBE493A3F8E493A34003F68001F20F
:10081C0008DFF48029E493A3F85407240CC8C333ED
:10082C00C4540F4420C8834004F456800146F6DFBC
:10083C00E4800B010204081020408090090BE47E38
:10084C00019360BCA3FF543F30E509541FFEE493B1
:10085C00A360010ECF54C025E060A840B8E493A378
:10086C00FAE493A3F8E493A3C8C582C8CAC583CAA3
:10087C00F0A3C8C582C8CAC583CADFE9DEE780BE5B
:01091E0000D8
:00000001FF
